:1000000019C028C027C026C025C024C023C022C0D4
:1000100021C020C01FC01EC01DC01CC01BC01AC0F4
:10002000BFC018C017C016C015C014C013C012C07E
:1000300011C010C011241FBECFEFCDBFDFE3DEBF64
:100040002FE3A0E0BFE301C01D92A730B207E1F7A4
:1000500058D0D1C0D5CFE0E0FAE081E0808383E7DB
:10006000818383E0828380E890E080A791A782A7C4
:1000700093A784A795A78FEF90E086A397A30895F1
:10008000E0E7F6E087E0808389E0828381E0868391
:100090000895809177068295817008951092053FAA
:1000A0001092063F82EB92E08093053F9093063FCB
:1000B00008951F93CF93DF93F8948091053F90911B
:1000C000063F969587950197F1F78091053F9091AE
:1000D000063F0197F1F7D8E080E010E8C82FC695F9
:1000E000D8DF8111812F8C2BE091053FF091063FE5
:1000F0003197F1F7D15091F77894DF91CF911F911B
:100100000895C0E2D4E08FE08883BADFA4DFC6DFC1
:100110008C8188608C8378940F2EF5E0EF2EFFE3BE
:10012000FF2EF02D00E716E0992493940F2EF1E0B6
:10013000CF2EFFE3DF2EF02D0F2EA12CFAE0BF2EE5
:10014000F02D6894882482F8C1E0DFE38091003FBD
:100150008823E1F3F894F8011682ABDF8993F80164
:10016000968278941092003FCE15DF0579F7F6015C
:100170008081863149F7818190E0F50180A791A7C0
:10018000F601828190E0F50182A793A7F6018381B1
:1001900090E0F50184A795A78582F6011082D4CF5F
:1001A0001F920F920FB60F9211242F933F934F93EC
:1001B0005F936F937F938F939F93AF93BF93EF93CF
:1001C000FF9367DF91E0811190E09093003F81E021
:1001D00080937706FF91EF91BF91AF919F918F919F
:1001E0007F916F915F914F913F912F910F900FBE33
:0A01F0000F901F901895F894FFCFB0
:00000001FF
